{
  "_format": "hh-sol-artifact-1",
  "contractName": "Crowdfunding2",
  "sourceName": "contracts/Crowdfunding2.sol",
  "abi": [
    {
      "anonymous": false,
      "inputs": [
        {
          "indexed": false,
          "internalType": "uint256",
          "name": "milestoneId",
          "type": "uint256"
        },
        {
          "indexed": false,
          "internalType": "string",
          "name": "documentURL",
          "type": "string"
        },
        {
          "indexed": false,
          "internalType": "string",
          "name": "status",
          "type": "string"
        }
      ],
      "name": "MilestoneDocumentUpdated",
      "type": "event"
    },
    {
      "inputs": [
        {
          "internalType": "uint256",
          "name": "",
          "type": "uint256"
        }
      ],
      "name": "campaigns",
      "outputs": [
        {
          "internalType": "uint256",
          "name": "id",
          "type": "uint256"
        },
        {
          "internalType": "address",
          "name": "owner",
          "type": "address"
        },
        {
          "internalType": "string",
          "name": "title",
          "type": "string"
        },
        {
          "internalType": "string",
          "name": "description",
          "type": "string"
        },
        {
          "internalType": "uint256",
          "name": "target",
          "type": "uint256"
        },
        {
          "internalType": "uint256",
          "name": "amountCollected",
          "type": "uint256"
        },
        {
          "internalType": "string",
          "name": "images",
          "type": "string"
        }
      ],
      "stateMutability": "view",
      "type": "function"
    },
    {
      "inputs": [
        {
          "internalType": "string",
          "name": "_title",
          "type": "string"
        },
        {
          "internalType": "string",
          "name": "_description",
          "type": "string"
        },
        {
          "internalType": "uint256",
          "name": "_target",
          "type": "uint256"
        },
        {
          "internalType": "string",
          "name": "_images",
          "type": "string"
        },
        {
          "components": [
            {
              "internalType": "uint256",
              "name": "id",
              "type": "uint256"
            },
            {
              "internalType": "uint256",
              "name": "campaignId",
              "type": "uint256"
            },
            {
              "internalType": "string",
              "name": "milestonetitle",
              "type": "string"
            },
            {
              "internalType": "string",
              "name": "milestonedescription",
              "type": "string"
            },
            {
              "internalType": "uint256",
              "name": "donationAmountCollected",
              "type": "uint256"
            },
            {
              "internalType": "uint256",
              "name": "targetAmt",
              "type": "uint256"
            },
            {
              "internalType": "uint256",
              "name": "startDate",
              "type": "uint256"
            },
            {
              "internalType": "uint256",
              "name": "endDate",
              "type": "uint256"
            },
            {
              "internalType": "string",
              "name": "status",
              "type": "string"
            },
            {
              "internalType": "bool",
              "name": "isFraud",
              "type": "bool"
            },
            {
              "internalType": "string",
              "name": "documentURL",
              "type": "string"
            }
          ],
          "internalType": "struct Crowdfunding2.Milestone[]",
          "name": "_milestones",
          "type": "tuple[]"
        }
      ],
      "name": "createCampaign",
      "outputs": [
        {
          "internalType": "uint256",
          "name": "",
          "type": "uint256"
        }
      ],
      "stateMutability": "nonpayable",
      "type": "function"
    },
    {
      "inputs": [
        {
          "internalType": "uint256",
          "name": "_campaignId",
          "type": "uint256"
        },
        {
          "internalType": "uint256",
          "name": "_milestoneId",
          "type": "uint256"
        },
        {
          "internalType": "uint256",
          "name": "_customTimestamp",
          "type": "uint256"
        }
      ],
      "name": "donateToMilestone",
      "outputs": [],
      "stateMutability": "payable",
      "type": "function"
    },
    {
      "inputs": [],
      "name": "getCampaigns",
      "outputs": [
        {
          "components": [
            {
              "internalType": "uint256",
              "name": "id",
              "type": "uint256"
            },
            {
              "internalType": "address",
              "name": "owner",
              "type": "address"
            },
            {
              "internalType": "string",
              "name": "title",
              "type": "string"
            },
            {
              "internalType": "string",
              "name": "description",
              "type": "string"
            },
            {
              "internalType": "uint256",
              "name": "target",
              "type": "uint256"
            },
            {
              "internalType": "uint256",
              "name": "amountCollected",
              "type": "uint256"
            },
            {
              "internalType": "string",
              "name": "images",
              "type": "string"
            },
            {
              "internalType": "uint256[]",
              "name": "milestoneIds",
              "type": "uint256[]"
            },
            {
              "internalType": "address[]",
              "name": "donators",
              "type": "address[]"
            },
            {
              "internalType": "uint256[]",
              "name": "donations",
              "type": "uint256[]"
            },
            {
              "components": [
                {
                  "internalType": "address",
                  "name": "donator",
                  "type": "address"
                },
                {
                  "internalType": "uint256",
                  "name": "amount",
                  "type": "uint256"
                },
                {
                  "internalType": "uint256",
                  "name": "timestamp",
                  "type": "uint256"
                },
                {
                  "internalType": "uint256",
                  "name": "milestoneId",
                  "type": "uint256"
                }
              ],
              "internalType": "struct Crowdfunding2.Transactions[]",
              "name": "transactions",
              "type": "tuple[]"
            }
          ],
          "internalType": "struct Crowdfunding2.Campaign[]",
          "name": "",
          "type": "tuple[]"
        }
      ],
      "stateMutability": "view",
      "type": "function"
    },
    {
      "inputs": [
        {
          "internalType": "uint256",
          "name": "_campaignId",
          "type": "uint256"
        }
      ],
      "name": "getMilestones",
      "outputs": [
        {
          "components": [
            {
              "internalType": "uint256",
              "name": "id",
              "type": "uint256"
            },
            {
              "internalType": "uint256",
              "name": "campaignId",
              "type": "uint256"
            },
            {
              "internalType": "string",
              "name": "milestonetitle",
              "type": "string"
            },
            {
              "internalType": "string",
              "name": "milestonedescription",
              "type": "string"
            },
            {
              "internalType": "uint256",
              "name": "donationAmountCollected",
              "type": "uint256"
            },
            {
              "internalType": "uint256",
              "name": "targetAmt",
              "type": "uint256"
            },
            {
              "internalType": "uint256",
              "name": "startDate",
              "type": "uint256"
            },
            {
              "internalType": "uint256",
              "name": "endDate",
              "type": "uint256"
            },
            {
              "internalType": "string",
              "name": "status",
              "type": "string"
            },
            {
              "internalType": "bool",
              "name": "isFraud",
              "type": "bool"
            },
            {
              "internalType": "string",
              "name": "documentURL",
              "type": "string"
            }
          ],
          "internalType": "struct Crowdfunding2.Milestone[]",
          "name": "",
          "type": "tuple[]"
        }
      ],
      "stateMutability": "view",
      "type": "function"
    },
    {
      "inputs": [
        {
          "internalType": "uint256",
          "name": "",
          "type": "uint256"
        }
      ],
      "name": "milestones",
      "outputs": [
        {
          "internalType": "uint256",
          "name": "id",
          "type": "uint256"
        },
        {
          "internalType": "uint256",
          "name": "campaignId",
          "type": "uint256"
        },
        {
          "internalType": "string",
          "name": "milestonetitle",
          "type": "string"
        },
        {
          "internalType": "string",
          "name": "milestonedescription",
          "type": "string"
        },
        {
          "internalType": "uint256",
          "name": "donationAmountCollected",
          "type": "uint256"
        },
        {
          "internalType": "uint256",
          "name": "targetAmt",
          "type": "uint256"
        },
        {
          "internalType": "uint256",
          "name": "startDate",
          "type": "uint256"
        },
        {
          "internalType": "uint256",
          "name": "endDate",
          "type": "uint256"
        },
        {
          "internalType": "string",
          "name": "status",
          "type": "string"
        },
        {
          "internalType": "bool",
          "name": "isFraud",
          "type": "bool"
        },
        {
          "internalType": "string",
          "name": "documentURL",
          "type": "string"
        }
      ],
      "stateMutability": "view",
      "type": "function"
    },
    {
      "inputs": [],
      "name": "numberOfCampaigns",
      "outputs": [
        {
          "internalType": "uint256",
          "name": "",
          "type": "uint256"
        }
      ],
      "stateMutability": "view",
      "type": "function"
    },
    {
      "inputs": [],
      "name": "numberOfMilestones",
      "outputs": [
        {
          "internalType": "uint256",
          "name": "",
          "type": "uint256"
        }
      ],
      "stateMutability": "view",
      "type": "function"
    },
    {
      "inputs": [
        {
          "internalType": "uint256",
          "name": "_milestoneId",
          "type": "uint256"
        },
        {
          "internalType": "string",
          "name": "_documentURL",
          "type": "string"
        }
      ],
      "name": "updateMilestoneDocument",
      "outputs": [],
      "stateMutability": "nonpayable",
      "type": "function"
    }
  ],
  "bytecode": "0x60806040526000600255600060035534801561001a57600080fd5b506121888061002a6000396000f3fe6080604052600436106100865760003560e01c8063a6b0363311610059578063a6b0363314610134578063b64fc3dd14610156578063c81196da14610178578063d79b2e341461018e578063e89e4ed6146101a157600080fd5b806307ca140d1461008b578063141961bc146100b457806342c549c0146100e75780636eb213f514610114575b600080fd5b34801561009757600080fd5b506100a160025481565b6040519081526020015b60405180910390f35b3480156100c057600080fd5b506100d46100cf366004611658565b6101d8565b6040516100ab97969594939291906116b7565b3480156100f357600080fd5b50610107610102366004611658565b6103b5565b6040516100ab9190611721565b34801561012057600080fd5b506100a161012f36600461192d565b6107da565b34801561014057600080fd5b50610149610a6d565b6040516100ab9190611c48565b34801561016257600080fd5b50610176610171366004611d82565b610f0a565b005b34801561018457600080fd5b506100a160035481565b61017661019c366004611dc9565b61112e565b3480156101ad57600080fd5b506101c16101bc366004611658565b6113db565b6040516100ab9b9a99989796959493929190611df5565b60006020819052908152604090208054600182015460028301805492936001600160a01b039092169261020a90611e86565b80601f016020809104026020016040519081016040528092919081815260200182805461023690611e86565b80156102835780601f1061025857610100808354040283529160200191610283565b820191906000526020600020905b81548152906001019060200180831161026657829003601f168201915b50505050509080600301805461029890611e86565b80601f01602080910402602001604051908101604052809291908181526020018280546102c490611e86565b80156103115780601f106102e657610100808354040283529160200191610311565b820191906000526020600020905b8154815290600101906020018083116102f457829003601f168201915b50505050509080600401549080600501549080600601805461033290611e86565b80601f016020809104026020016040519081016040528092919081815260200182805461035e90611e86565b80156103ab5780601f10610380576101008083540402835291602001916103ab565b820191906000526020600020905b81548152906001019060200180831161038e57829003601f168201915b5050505050905087565b60008181526020818152604080832060070180548251818502810185019093528083526060949383018282801561040b57602002820191906000526020600020905b8154815260200190600101908083116103f7575b505050505090506000815167ffffffffffffffff81111561042e5761042e611837565b6040519080825280602002602001820160405280156104be57816020015b6104ab604051806101600160405280600081526020016000815260200160608152602001606081526020016000815260200160008152602001600081526020016000815260200160608152602001600015158152602001606081525090565b81526020019060019003908161044c5790505b50905060005b82518110156107d2576000600160008584815181106104e5576104e5611eba565b6020026020010151815260200190815260200160002090508060405180610160016040529081600082015481526020016001820154815260200160028201805461052e90611e86565b80601f016020809104026020016040519081016040528092919081815260200182805461055a90611e86565b80156105a75780601f1061057c576101008083540402835291602001916105a7565b820191906000526020600020905b81548152906001019060200180831161058a57829003601f168201915b505050505081526020016003820180546105c090611e86565b80601f01602080910402602001604051908101604052809291908181526020018280546105ec90611e86565b80156106395780601f1061060e57610100808354040283529160200191610639565b820191906000526020600020905b81548152906001019060200180831161061c57829003601f168201915b505050505081526020016004820154815260200160058201548152602001600682015481526020016007820154815260200160088201805461067a90611e86565b80601f01602080910402602001604051908101604052809291908181526020018280546106a690611e86565b80156106f35780601f106106c8576101008083540402835291602001916106f3565b820191906000526020600020905b8154815290600101906020018083116106d657829003601f168201915b5050509183525050600982015460ff1615156020820152600a8201805460409092019161071f90611e86565b80601f016020809104026020016040519081016040528092919081815260200182805461074b90611e86565b80156107985780601f1061076d57610100808354040283529160200191610798565b820191906000526020600020905b81548152906001019060200180831161077b57829003601f168201915b5050505050815250508383815181106107b3576107b3611eba565b60200260200101819052505080806107ca90611ee6565b9150506104c4565b509392505050565b6002805460008181526020819052604081209182556001820180546001600160a01b031916331790559181016108108882611f4e565b506003810161081f8782611f4e565b5060048101859055600060058201556006810161083c8582611f4e565b5060005b8351811015610a3d57600354600081815260016020819052604090912091825560025490820155845185908390811061087b5761087b611eba565b6020026020010151604001518160020190816108979190611f4e565b508482815181106108aa576108aa611eba565b6020026020010151606001518160030190816108c69190611f4e565b508482815181106108d9576108d9611eba565b602002602001015160a0015181600501819055508482815181106108ff576108ff611eba565b602002602001015160c00151816006018190555084828151811061092557610925611eba565b602002602001015160e00151816007018190555084828151811061094b5761094b611eba565b602002602001015160800151816004018190555084828151811061097157610971611eba565b6020026020010151610100015181600801908161098e9190611f4e565b508482815181106109a1576109a1611eba565b602002602001015161012001518160090160006101000a81548160ff0219169083151502179055508482815181106109db576109db611eba565b6020026020010151610140015181600a0190816109f89190611f4e565b5060038054600785018054600181018255600091825260208220019190915581549190610a2483611ee6565b9190505550508080610a3590611ee6565b915050610840565b5060028054906000610a4e83611ee6565b91905055506001600254610a62919061200e565b979650505050505050565b6060600060025467ffffffffffffffff811115610a8c57610a8c611837565b604051908082528060200260200182016040528015610b2357816020015b610b106040518061016001604052806000815260200160006001600160a01b031681526020016060815260200160608152602001600081526020016000815260200160608152602001606081526020016060815260200160608152602001606081525090565b815260200190600190039081610aaa5790505b50905060005b600254811015610f0457600081815260208181526040918290208251610160810184528154815260018201546001600160a01b031692810192909252600281018054919384929084019190610b7d90611e86565b80601f0160208091040260200160405190810160405280929190818152602001828054610ba990611e86565b8015610bf65780601f10610bcb57610100808354040283529160200191610bf6565b820191906000526020600020905b815481529060010190602001808311610bd957829003601f168201915b50505050508152602001600382018054610c0f90611e86565b80601f0160208091040260200160405190810160405280929190818152602001828054610c3b90611e86565b8015610c885780601f10610c5d57610100808354040283529160200191610c88565b820191906000526020600020905b815481529060010190602001808311610c6b57829003601f168201915b505050505081526020016004820154815260200160058201548152602001600682018054610cb590611e86565b80601f0160208091040260200160405190810160405280929190818152602001828054610ce190611e86565b8015610d2e5780601f10610d0357610100808354040283529160200191610d2e565b820191906000526020600020905b815481529060010190602001808311610d1157829003601f168201915b5050505050815260200160078201805480602002602001604051908101604052809291908181526020018280548015610d8657602002820191906000526020600020905b815481526020019060010190808311610d72575b5050505050815260200160088201805480602002602001604051908101604052809291908181526020018280548015610de857602002820191906000526020600020905b81546001600160a01b03168152600190910190602001808311610dca575b5050505050815260200160098201805480602002602001604051908101604052809291908181526020018280548015610e4057602002820191906000526020600020905b815481526020019060010190808311610e2c575b50505050508152602001600a8201805480602002602001604051908101604052809291908181526020016000905b82821015610ecb576000848152602090819020604080516080810182526004860290920180546001600160a01b03168352600180820154848601526002820154928401929092526003015460608301529083529092019101610e6e565b5050505081525050838381518110610ee557610ee5611eba565b6020026020010181905250508080610efc90611ee6565b915050610b29565b50919050565b6003548210610f5b5760405162461bcd60e51b8152602060048201526018602482015277135a5b195cdd1bdb9948191bd95cc81b9bdd08195e1a5cdd60421b60448201526064015b60405180910390fd5b6002546000838152600160208190526040909120015410610fb85760405162461bcd60e51b815260206004820152601760248201527610d85b5c185a59db88191bd95cc81b9bdd08195e1a5cdd604a1b6044820152606401610f52565b600082815260016020818152604080842083015484529083905290912001546001600160a01b0316331461103f5760405162461bcd60e51b815260206004820152602860248201527f4f6e6c792063616d706169676e206f776e65722063616e20757064617465206d604482015267696c6573746f6e6560c01b6064820152608401610f52565b6000828152600160205260409020600a810161105b8382611f4e565b50604080518082018252600981526818dbdb5c1b195d195960ba1b602090910152517f6216ba39af4188a6d7c765710d7e6075007c3444b59a22a973d1b958c43e60bb906110ad906008840190612027565b6040518091039020146110eb5760408051808201909152600981526818dbdb5c1b195d195960ba1b602082015260088201906110e99082611f4e565b505b7f566323dad72faf713e37fa4bf2cf7c2277e11373ac6cdf89f75c0869815b03b48383836008016040516111219392919061209d565b60405180910390a1505050565b60025483106111795760405162461bcd60e51b815260206004820152601760248201527610d85b5c185a59db88191bd95cc81b9bdd08195e1a5cdd604a1b6044820152606401610f52565b60035482106111c55760405162461bcd60e51b8152602060048201526018602482015277135a5b195cdd1bdb9948191bd95cc81b9bdd08195e1a5cdd60421b6044820152606401610f52565b600034116112275760405162461bcd60e51b815260206004820152602960248201527f446f6e6174696f6e20616d6f756e74206d7573742062652067726561746572206044820152687468616e207a65726f60b81b6064820152608401610f52565b60008381526020818152604080832085845260019283905292209081015485146112a55760405162461bcd60e51b815260206004820152602960248201527f4d696c6573746f6e6520646f6573206e6f742062656c6f6e6720746f207468656044820152681031b0b6b830b4b3b760b91b6064820152608401610f52565b600083156112b357836112b5565b425b9050348360050160008282546112cb919061213f565b92505081905550348260040160008282546112e6919061213f565b909155505060058201546004830154106113295760408051808201909152600781526670656e64696e6760c81b602082015260088301906113279082611f4e565b505b604080516080810182523380825234602080840182815294840195865260608401998a52600a880180546001818101835560009283528383209651600490920290960180546001600160a01b03929092166001600160a01b03199283161781559651878701559651600287015599516003909501949094556008870180548085018255908a52848a20018054909516909117909355600990940180549485018155865290942090910192909255505050565b600160208190526000918252604090912080549181015460028201805491929161140490611e86565b80601f016020809104026020016040519081016040528092919081815260200182805461143090611e86565b801561147d5780601f106114525761010080835404028352916020019161147d565b820191906000526020600020905b81548152906001019060200180831161146057829003601f168201915b50505050509080600301805461149290611e86565b80601f01602080910402602001604051908101604052809291908181526020018280546114be90611e86565b801561150b5780601f106114e05761010080835404028352916020019161150b565b820191906000526020600020905b8154815290600101906020018083116114ee57829003601f168201915b50505050509080600401549080600501549080600601549080600701549080600801805461153890611e86565b80601f016020809104026020016040519081016040528092919081815260200182805461156490611e86565b80156115b15780601f10611586576101008083540402835291602001916115b1565b820191906000526020600020905b81548152906001019060200180831161159457829003601f168201915b5050506009840154600a85018054949560ff9092169491935091506115d590611e86565b80601f016020809104026020016040519081016040528092919081815260200182805461160190611e86565b801561164e5780601f106116235761010080835404028352916020019161164e565b820191906000526020600020905b81548152906001019060200180831161163157829003601f168201915b505050505090508b565b60006020828403121561166a57600080fd5b5035919050565b6000815180845260005b818110156116975760208185018101518683018201520161167b565b506000602082860101526020601f19601f83011685010191505092915050565b8781526001600160a01b038716602082015260e0604082018190526000906116e190830188611671565b82810360608401526116f38188611671565b90508560808401528460a084015282810360c08401526117138185611671565b9a9950505050505050505050565b60006020808301818452808551808352604092508286019150828160051b87010184880160005b8381101561182957603f19898403018552815161016081518552888201518986015287820151818987015261177f82870182611671565b915050606080830151868303828801526117998382611671565b6080858101519089015260a0808601519089015260c0808601519089015260e0808601519089015261010080860151898303828b0152919450925090506117e08382611671565b92505050610120808301516117f88288018215159052565b505061014080830151925085820381870152506118158183611671565b968901969450505090860190600101611748565b509098975050505050505050565b634e487b7160e01b600052604160045260246000fd5b604051610160810167ffffffffffffffff8111828210171561187157611871611837565b60405290565b604051601f8201601f1916810167ffffffffffffffff811182821017156118a0576118a0611837565b604052919050565b600082601f8301126118b957600080fd5b813567ffffffffffffffff8111156118d3576118d3611837565b6118e6601f8201601f1916602001611877565b8181528460208386010111156118fb57600080fd5b816020850160208301376000918101602001919091529392505050565b8035801515811461192857600080fd5b919050565b600080600080600060a0868803121561194557600080fd5b67ffffffffffffffff808735111561195c57600080fd5b61196988883589016118a8565b9550806020880135111561197c57600080fd5b61198c88602089013589016118a8565b94506040870135935080606088013511156119a657600080fd5b6119b688606089013589016118a8565b925080608088013511156119c957600080fd5b6080870135870188601f8201126119df57600080fd5b81813511156119f0576119f0611837565b611a006020823560051b01611877565b81358082526020808301929160051b8401018b1015611a1e57600080fd5b602083015b6020843560051b850101811015611b69578481351115611a4257600080fd5b80358401610160818e03601f19011215611a5b57600080fd5b611a6361184d565b60208201358152604082013560208201528660608301351115611a8557600080fd5b611a988e602060608501358501016118a8565b60408201528660808301351115611aae57600080fd5b611ac18e602060808501358501016118a8565b606082015260a0820135608082015260c082013560a082015260e082013560c082015261010082013560e0820152866101208301351115611b0157600080fd5b611b158e60206101208501358501016118a8565b610100820152611b286101408301611918565b610120820152866101608301351115611b4057600080fd5b611b548e60206101608501358501016118a8565b61014082015284525060209283019201611a23565b50809450505050509295509295909350565b600081518084526020808501945080840160005b83811015611bab57815187529582019590820190600101611b8f565b509495945050505050565b600081518084526020808501945080840160005b83811015611bab5781516001600160a01b031687529582019590820190600101611bca565b600081518084526020808501945080840160005b83811015611bab57815180516001600160a01b031688528381015184890152604080820151908901526060908101519088015260809096019590820190600101611c03565b60006020808301818452808551808352604092508286019150828160051b87010184880160005b8381101561182957603f19898403018552815180518452878101516001600160a01b0316888501528681015161016088860181905290611cb182870182611671565b91505060608083015186830382880152611ccb8382611671565b92505050608080830151818701525060a080830151818701525060c08083015186830382880152611cfc8382611671565b9250505060e08083015186830382880152611d178382611b7b565b925050506101008083015186830382880152611d338382611bb6565b925050506101208083015186830382880152611d4f8382611b7b565b925050506101408083015192508582038187015250611d6e8183611bef565b968901969450505090860190600101611c6f565b60008060408385031215611d9557600080fd5b82359150602083013567ffffffffffffffff811115611db357600080fd5b611dbf858286016118a8565b9150509250929050565b600080600060608486031215611dde57600080fd5b505081359360208301359350604090920135919050565b60006101608d83528c6020840152806040840152611e158184018d611671565b90508281036060840152611e29818c611671565b90508960808401528860a08401528760c08401528660e0840152828103610100840152611e568187611671565b9050841515610120840152828103610140840152611e748185611671565b9e9d5050505050505050505050505050565b600181811c90821680611e9a57607f821691505b602082108103610f0457634e487b7160e01b600052602260045260246000fd5b634e487b7160e01b600052603260045260246000fd5b634e487b7160e01b600052601160045260246000fd5b600060018201611ef857611ef8611ed0565b5060010190565b601f821115611f4957600081815260208120601f850160051c81016020861015611f265750805b601f850160051c820191505b81811015611f4557828155600101611f32565b5050505b505050565b815167ffffffffffffffff811115611f6857611f68611837565b611f7c81611f768454611e86565b84611eff565b602080601f831160018114611fb15760008415611f995750858301515b600019600386901b1c1916600185901b178555611f45565b600085815260208120601f198616915b82811015611fe057888601518255948401946001909101908401611fc1565b5085821015611ffe5787850151600019600388901b60f8161c191681555b5050505050600190811b01905550565b8181038181111561202157612021611ed0565b92915050565b600080835461203581611e86565b6001828116801561204d576001811461206257612091565b60ff1984168752821515830287019450612091565b8760005260208060002060005b858110156120885781548a82015290840190820161206f565b50505082870194505b50929695505050505050565b838152600060206060818401526120b76060840186611671565b8381036040850152600085546120cc81611e86565b808452600182811680156120e757600181146121015761212f565b60ff1984168688015282151560051b86018701945061212f565b896000528660002060005b848110156121275781548882018a015290830190880161210c565b870188019550505b50929a9950505050505050505050565b8082018082111561202157612021611ed056fea264697066735822122097930e0457c62d1e2aed6fa1f0ad3685204b0791528b3be84d195af658dd7fb464736f6c63430008110033",
  "linkReferences": {},
  "deployedLinkReferences": {}
}